:100000000C94EC060C9414070C9414070C9414072D
:100010000C9414070C9414070C9414070C941407F4
:100020000C9414070C9414070C9414070C941407E4
:100030000C9414070C9414070C9414070C941407D4
:100040000C94821C0C9414070C94501C0C942A1CC5
:100050000C9414070C9414070C9414070C941407B4
:100060000C9414070C9414070000000024002700CF
:100070002A0000000000250028002B0000000000DE
:1000800023002600290004040404040404040202DA
:100090000202020203030303030301020408102007
:1000A0004080010204081020010204081020000012
:1000B0000008000201000003040700000000000027
:1000C0000000060820B00000000000000000002F23
:1000D000000000000700070000147F147F140024B4
:1000E0002A7F2A12002313086462003649552250E1
:1000F00000000503000000001C2241000000412216
:100100001C000014083E08140008083E08080000FF
:1001100000A06000000808080808000060600000F7
:10012000002010080402003E5149453E0000427F75
:100130004000004261514946002141454B310018C1
:1001400014127F10002745454539003C4A49493083
:10015000000171090503003649494936000649493D
:10016000291E000036360000000056360000000848
:100170001422410000141414141400004122140825
:1001800000020151090600324959513E007C12110A
:10019000127C007F49494936003E41414122007F9F
:1001A0004141221C007F49494941007F0909090159
:1001B000003E4149497A007F0808087F0000417FDE
:1001C0004100002040413F01007F08142241007F90
:1001D00040404040007F020C027F007F0408107FF7
:1001E000003E4141413E007F09090906003E415160
:1001F000215E007F0919294600464949493100011D
:10020000017F0101003F4040403F001F2040201F70
:10021000003F4038403F0063140814630007087033
:10022000080700615149454300007F414100AA553C
:10023000AA55AA55000041417F00000402010204B2
:10024000004040404040000003050000002054549E
:100250007840007F28444438003844444420003823
:100260004444487F00385454541800087E09010261
:100270000018A4A4A47C007F080404780000447D36
:100280004000004080847D00007F10284400000072
:10029000417F4000007C04180478007C0804047846
:1002A00000384444443800FC242424180018242432
:1002B00018FC007C0804040800485454542000042E
:1002C0003F444020003C4040207C001C2040201C3B
:1002D000003C4030403C004428102844001CA0A0B2
:1002E000A07C004464544C440000107C8200000058
:1002F00000FF00000000827C100000100810201099
:10030000000000000000007C1211127C007F4949AF
:100310004931007F4545453A007F010101030060F6
:100320003F213F60007F4949494100730C7F0C73B6
:10033000002241494936007F1008047F007E2011C9
:10034000087E007F0814224100403F01017F007FAA
:100350000608067F007F0808087F003E4141413EB5
:10036000007F0101017F007F09090906003E41412C
:1003700041220003017F0103006126180601001CD1
:10038000227F221C006314081463003F20203F607A
:1003900000070808087F007F407F407F003F203F24
:1003A000207F00017F484830007F4878007F007F31
:1003B00048483000004149492A1C007F103E413E18
:1003C00000661909097F002054547840003E4945D1
:1003D0004538007C54545820007C04040C0000383C
:1003E0004545493E003854545418004C307C304C3C
:1003F000002844542800007C20107C00007C21113F
:100400007C00007C1028440000403C04047C007CFC
:100410000810087C007C10107C00003844444438EC
:10042000007C04047C0000FC284444380038444428
:1004300044280004047C0404004C5050503C003814
:1004400044FE4438004428102844007C40407CC0CE
:10045000001C10107C00007C407C407C007C407CB8
:1004600040FC00047C507000007C5070007C000058
:100470007C507000002844543800007C1038443808
:1004800000085434147C007E4B4A4B4200385554CB
:1004900055180000000000000000000000000000EF
:1004A000000000000000000000000000000000004C
:1004B000000000000000000006090906000000001E
:1004C000000000000000000000000000000000002C
:1004D000000000000000000000000000000000001C
:1004E00000000000000001AF300C10205F00000091
:1004F00000000000000000000000000000000000FC
:1005000000000000000000000000FEFE00000000EF
:10051000000000000000676700000000000000000D
:10052000160E0000160E0000000000000000000083
:100530000000000000000060E0F87E6EE0F87E6ED3
:100540000000767E1F07767E1F070600000078FCFD
:10055000CE86FFFF869E1C18000018387961FFFFC9
:1005600061733F1E00003C7E667EBCE0781E060084
:1005700000000060781E073D7E667E3C00000000A3
:100580008080FCFEE6E67E3C00001E3F73616171E8
:100590007F3F7C6C000000000000160E0000000091
:1005A000000000000000000000000000000000004B
:1005B00000F0FC0E0300000000000000000F3F7080
:1005C000C00000000000000000030EFCF00000006E
:1005D0000000000000C0703F0F000000000000009D
:1005E00008783C3C78080000000000000000000093
:1005F00000000000000000808080F0F0808080001B
:100600000000000101010F0F0101010000000000C6
:100610000000000000000000000000000000B070BA
:1006200000000000000000808080808080808000CA
:1006300000000001010101010101010000000000B2
:1006400000000000000000000000000000006060EA
:100650000000000000000000000080E0781E06009E
:1006600000000060781E0701000000000000F8FC98
:100670000E060606060EFCF800001F3F7060606064
:1006800060703F1F0000000030381CFEFE060000B6
:10069000000000000000607F7F6000000000181C68
:1006A0001E06060686CEFC780000787C7E666763B0
:1006B0006361707000000E0E0606C6E6F6FE9E0E22
:1006C000000018387860606060713F1F0000008093
:1006D000C0E070381CFEFE0600000707070606068D
:1006E000667F7F660000FEFEE666666666E6CE8E84
:1006F000000018387860606060703F1F0000F8FCF0
:10070000CEC6C6C6C6DE9C1800001F3F7160606082
:1007100060713F1F00001E1E0606060686E67E1E4E
:10072000000000000060781E07010000000078FC57
:10073000CE86868686CEFC7800001E3F736161619E
:1007400061733F1E0000F8FC8E060606068EFCF85C
:10075000000018397B63636363733F1F0000000070
:1007600000003030000000000000000000000C0C11
:100770000000000000000000000030300000000019
:100780000000000000002C1C0000000000000080A1
:10079000C0C0E060703030000000000103030706B5
:1007A0000E0C0C0000000060606060606060600023
:1007B00000000006060606060606060000000030D9
:1007C000307060E0C0C080000000000C0C0E060716
:1007D000030301000000181C1E06068686CEFC7866
:1007E00000000000006E6F03010100000000F8FC33
:1007F0000EE6F636F6F60EFCF8001F3F70676F6CDB
:100800006F676C2F070000F0FC1E060606FEFE0652
:100810000000607F7F630303637F7F60000006FE4C
:10082000FE86868686CEFC780000607F7F616161EF
:1008300061733F1E0000F8FC0E060606061E1C181B
:1008400000001F3F7060606060783818000006FE8E
:10085000FE060606060EFCF80000607F7F60606002
:1008600060703F1F000006FEFE868686C6C60E0E1E
:100870000000607F7F61616163637070000006FE4D
:10088000FE8686C6C6060E0E0000607F7F610103ED
:10089000030000000000F8FC0E060606061E1C18E9
:1008A00000001F3F7060606363733F1F000006FE1F
:1008B000FE86808086FEFE060000607F7F6101016B
:1008C000617F7F60000000000006FEFE0600000061
:1008D0000000000000607F7F60000000000000005A
:1008E0000000000006FEFE06000000183878606078
:1008F000703F1F00000006FEFE8680C0F67E1E06CA
:100900000000607F7F6101036F7E7860000006FE5B
:10091000FE060000000000000000607F7F60606055
:1009200060607070000006FEFE78E0E078FEFE0673
:100930000000607F7F600101607F7F60000006FE35
:10094000FE78E08006FEFE060000607F7F60010703
:100950001E7F7F600000F8FC0E060606060EFCF8FF
:1009600000001F3F7060606060703F1F000006FE67
:10097000FE060606068EFCF80000607F7F63030318
:10098000030301000000F8FC0E060606060EFCF844
:1009900000001F3F7060606C7C387F6F000006FEB7
:1009A000FE060606068EFCF80000607F7F630303E8
:1009B0006F7F7960000078FCCE868686869E1C1844
:1009C000000018387961616161733F1E00000E0EEE
:1009D0000606FEFE06060E0E0000000000607F7F89
:1009E00060000000000006FEFE06000006FEFE0697
:1009F0000000001F3F706060703F1F00000006FE97
:100A0000FE06000006FEFE06000000030F3E78789A
:100A10003E0F0300000006FEFE06808006FEFE0676
:100A20000000001F7F781F1F787F1F000000061E38
:100A30007EF6C0C0F67E1E06000060787E6F03035F
:100A40006F7E78600000067EFEC60000C6FE7E0651
:100A50000000000001637F7F6301000000000E0EB4
:100A6000060686C6E6763E1E0000787C6E676361E9
:100A7000606070700000000000FFFF0303030000CF
:100A80000000000000FFFFC0C0C000000000000622
:100A90001E78E08000000000000000000000010758
:100AA0001E78600000000000030303FFFF00000049
:100AB00000000000C0C0C0FFFF00000000000000F8
:100AC000303C1E1E3C300000000000000000000012
:100AD0000000000000000000000000000000000016
:100AE0000000606060606060606060600000000046
:100AF00000000E0E000000000000000000000000DA
:100B0000000000000000C0E07030303070E0C00035
:100B100000001C3E77636363337F7F60000006FE46
:100B2000FE6630303070E0C00000607F7F30606073
:100B300060703F1F0000C0E07030303030F0E0C027
:100B400000001F3F70606060607838180000C0E0EF
:100B50007030303066FEFE0600001F3F706060603F
:100B6000307F7F600000C0E0703030303070E0C017
:100B700000001F3F76666666667637170000000045
:100B800060FCFE660600000000000000007F7F00A1
:100B9000000000000000C0E07030303060F0F03045
:100BA00000003377EECCCCCCEE7F3F00000006FE99
:100BB000FE66303070E0C0000000607F7F600000A3
:100BC000607F7F60000000000030F6F6300000001B
:100BD0000000000000607F7F600000000000000057
:100BE000000030F6F6300000000000000060607F7A
:100BF0003F000000000006FEFE0680F0F07030307E
:100C00000000607F7F63070F7C7870600000000049
:100C10000006FEFE060000000000000000607F7F6E
:100C2000600000000030F0E03030F0E03030F0E004
:100C300000607F7F60007F7F00607F7F600030F01A
:100C4000F060303070E0C0000000607F7F60000026
:100C5000607F7F600000C0E0703030303070E0C0F6
:100C600000001F3F7060606060703F1F000030F048
:100C7000F06030303070E0C00000C0FFFFD830308E
:100C800030381F0F0000C0E07030303060F0F030BE
:100C900000000F1F38303030D8FFFFC00000003098
:100CA000F0F0603030706000000000607F7F600016
:100CB000000000000000E0F0303030303070706034
:100CC0000000193B7B63636363773E1C00000000F8
:100CD00030FEFE300000000000000000003F7F609A
:100CE00060000000000030F0F030000030F0F03024
:100CF0000000001F3F706060307F7F60000030F0B8
:100D0000F030000030F0F03000000000071F78786D
:100D10001F0700000030F0F0300000000030F0F05D
:100D20003000031F7C701E1E707C1F03000000300B
:100D300070F08080F070300000000060707D0F0F58
:100D40007D70600000000030F0C00000C0F0300096
:100D50000000006060733F0F03000000000000709F
:100D6000703030B0F0F07000000000787C6E676387
:100D70006170700000000080C0FC7E07030300006B
:100D800000000001033F7EE0C0C000000000000042
:100D90000000FEFE000000000000000000007F7F59
:100DA00000000000000000000303077EFCC080007C
:100DB00000000000C0C0E07E3F030100000080C0D2
:100DC000C0C0C0800000808000000101000001035D
:100DD0000303030100002A1D11241FBECFEFD8E03A
:100DE000DEBFCDBF23E0AEEEB2E001C01D92A93E52
:100DF000B207E1F712E0A0E0B1E0E4E5FAE402C0F6
:100E000005900D92AE3EB107D9F716E0CCEED6E0D4
:100E100004C02197FE010E942123CB3ED107C9F7D0
:100E20000E94A41D0C9428250C9400004F925F9200
:100E30006F927F928F929F92AF92BF92CF92DF92EA
:100E4000EF92FF92A091B903A150BB0B24E630E0D2
:100E50000E941A2320919E036B017C01C20ED11CBB
:100E6000E11CF11CA7019601225B374041095109A1
:100E7000ADE6B1E00E9444212B013C01460157013F
:100E800021EB821A27E0920AA108B10872E0B69419
:100E9000A794979487947A95D1F730919D03432F27
:100EA00050E081E090E0393010F490E080E0840F71
:100EB000951F95958795415051092EE1249FF0018A
:100EC000259FF00D11248E0F9F1F092E000CAA0BD9
:100ED000BB0B333008F45CC023E0C222DD24EE24D7
:100EE000FF24CD28CE28CF2809F456C032E0C32EE7
:100EF000D12CE12CF12C40919B034150550B052E38
:100F0000000C660B770B840F951FA61FB71F9C0163
:100F1000AD01240D351D461D571D280D391D4A1DD7
:100F20005B1D2C193D094E095F0960E871E581E000
:100F300090E00E9495224B015C012091990330E0E2
:100F4000A0E1BEE00E9486216B017C012091970305
:100F500030E0ACE3B0E00E9486216C0D7D1D8E1D5B
:100F60009F1D20919603620F711D811D911D680DBB
:100F7000791D8A1D9B1DFF90EF90DF90CF90BF9051
:100F8000AF909F908F907F906F905F904F9008955B
:100F9000C12CD12C7601AFCFC12CD12C7601C394BA
:100FA000AACFCF92DF92EF92FF920F93CF93DF936E
:100FB0007C01D62F8091C4039091C503DC01ED9193
:100FC000FC910288F389E02D0995843011F5C0E089
:100FD000CD2ED12CCD1768F58091C4039091C50317
:100FE000DC01ED91FC910484F585E02D2C2F30E09F
:100FF000A901425E5F4F0D2F0C1B4C155D050CF4D3
:101000000EE12E0D3F1D40E46091C2030995C25EC2
:10101000E1CF8091C4039091C503DC01ED91FC9177
:101020000484F585E02D0D2F970140E46091C20303
:101030000995DF91CF910F91FF90EF90DF90CF90C6
:101040000895CF93DF93C0ECD3E0AC81BD81ED91E7
:10105000FC9111970480F581E02D282F40E06A81F2
:10106000CD01DF91CF910994FF920F931F93CF93FE
:10107000DF93CDB7DEB7C058D1090FB6F894DEBF05
:101080000FBECDBFFE01319680E0FE2E0F2F1192D4
:101090008F5F8038E1F710E082E20E942108812F03
:1010A0000E942108812F0E94210881E20E942108CC
:1010B00080E00E9421088FE70E94210860E88F2DC0
:1010C000902F0E94D1071F5F183031F7C058DF4FB3
:1010D0000FB6F894DEBF0FBECDBFDF91CF911F9149
:1010E0000F91FF900895CF93DF93FC019081809141
:1010F000C3038130A1F0823009F05DC0EF0140E010
:1011000021EF30EF992309F452C04F3F09F44FC04B
:1011100080E4890F8033B8F5905498833BC02181D7
:1011200030E080E051EF60EFDF01A30FB11D9923A4
:1011300009F440C08F3FF1F141E0480F903DA1F428
:1011400070E7720F703318F420512C9303C02138CC
:10115000B9F46C9381E0840F3F5FDF01A80FB11DEC
:101160009C9111962C91E0CF913D51F470E8720F53
:10117000703110F4205AE9CF213911F45C93EACF91
:101180009C93482FE7CF903F10F09051C6CF983AEC
:1011900049F438834F5FCF01840F911DDC019C918E
:1011A0002196B0CF983B09F0B8CF2883F3CFDF0169
:1011B000A40FB11D1C92CF01DF91CF9108959093A0
:1011C000C7038093C603FC0144914093C803319642
:1011D00034913093C9033196E491E093CA03FC0142
:1011E0003396E491E093CB0321E02093CD03E49F79
:1011F000A0011124349FF001359FF00D11249F01AF
:1012000043E0369527954A95E1F7F9013496E80FC2
:10121000F91FE4914E2F50E06FEF6093CE031092D0
:10122000D1036093CF031092D2036093D003109246
:10123000D3034115510509F431C0F9013596E80F82
:10124000F91FE491E093CE03F9013696E80FF91FF8
:10125000E491E093D1034130510501F1F901379652
:10126000E80FF91FE491E093CF03F9013896E80FF6
:10127000F91FE491E093D2034230510579F0F9016E
:101280003996E80FF91FE491E093D003265F3F4FB2
:10129000820F931FFC0184918093D3030895AF9232
:1012A000BF92CF92DF92EF92FF920F931F93CF9353
:1012B000DF936C017B018B01040F151FEB015E01B5
:1012C000AE18BF08C017D10759F06991D601ED914A
:1012D000FC910190F081E02DC6010995892B79F7E9
:1012E000C501DF91CF911F910F91FF90EF90DF909B
:1012F000CF90BF90AF900895FC01538D448D252F62
:1013000030E0842F90E0821B930B541710F0CF969F
:10131000089501970895FC01918D828D981761F0D1
:10132000A28DAE0FBF2FB11D5D968C91928D9F5FE8
:101330009F73928F90E008958FEF9FEF0895FC01C7
:10134000918D828D981731F0828DE80FF11D858D7A
:1013500090E008958FEF9FEF0895FC01918D228D0D
:10136000892F90E0805C9F4F821B91098F73992792
:10137000089589EF92E00E94AD0921E0892B09F4DC
:1013800020E0822F089580E090E0892B29F00E94D0
:10139000B90981110C9400000895FC01A48DA80FD7
:1013A000B92FB11DA35ABF4F2C91848D90E00196A7
:1013B0008F739927848FA689B7892C93A089B189C7
:1013C0008C91837080648C93938D848D981306C068
:1013D0000288F389E02D80818F7D80830895EF92CC
:1013E000FF920F931F93CF93DF93EC0181E0888FDF
:1013F0009B8D8C8D98131AC0E889F989808185FFAF
:1014000015C09FB7F894EE89FF896083E889F98950
:1014100080818370806480839FBF81E090E0DF9152
:10142000CF911F910F91FF90EF900895F62E0B8DA5
:1014300010E00F5F1F4F0F731127E02E8C8D8E1160
:101440000CC00FB607FCFACFE889F989808185FFC7
:10145000F5CFCE010E94CD09F1CFEB8DEC0FFD2F22
:10146000F11DE35AFF4FF0829FB7F8940B8FEA8982
:10147000FB8980818062CFCFCF93DF93EC01888D91
:101480008823B9F0AA89BB89E889F9898C9185FDFF
:1014900003C0808186FD0DC00FB607FCF7CF8C918D
:1014A00085FFF2CF808185FFEDCFCE010E94CD096F
:1014B000E9CFDF91CF910895833081F028F4813016
:1014C00099F08230A9F008958730A9F08830C9F0EA
:1014D0008430B1F4809180008F7D03C080918000C2
:1014E0008F7780938000089584B58F7784BD0895A9
:1014F00084B58F7DFBCF8091B0008F778093B00053
:1015000008958091B0008F7DF9CFCF93DF93282F7E
:1015100030E0F901E255FF4F8491F901E656FF4FA3
:10152000D491F901EA57FF4FC491CC23A1F0811166
:101530000E945C0AEC2FF0E0EE0FFF1FE458FF4F13
:10154000A591B491EC91ED2381E090E009F480E065
:10155000DF91CF91089580E090E0FACF1F93CF9371
:10156000DF93282F30E0F901E255FF4F8491F90114
:10157000E656FF4FD491F901EA57FF4FC491CC23AF
:10158000A9F0162F81110E945C0AEC2FF0E0EE0FFB
:10159000FF1FEE58FF4FA591B4918FB7F894EC91CF
:1015A000111108C0D095DE23DC938FBFDF91CF915E
:1015B0001F910895DE2BF8CFCF93DF9390E0FC01CD
:1015C000E656FF4F24918A579F4FFC018491882350
:1015D000C9F090E0880F991FFC01E859FF4FA591D1
:1015E000B491FC01EE58FF4FC591D49161110DC02B
:1015F0009FB7F8948C91209582238C93888128231F
:1016000028839FBFDF91CF910895623051F49FB737
:10161000F8943C91822F809583238C93E8812E2B24
:10162000EFCF8FB7F894EC912E2B2C938FBFEACF8E
:101630008230910538F0880F991F880F991F059700
:101640000197F1F708953FB7F8948091F3029091D4
:10165000F402A091F502B091F60226B5A89B05C050
:101660002F3F19F00196A11DB11D3FBFBA2FA92F21
:10167000982F8827BC01CD01620F711D811D911D1E
:1016800042E0660F771F881F991F4A95D1F708958A
:101690008F929F92AF92BF92CF92DF92EF92FF9282
:1016A0004B015C010E94230B6B017C010E94230B08
:1016B0006C197D098E099F09683E7340810591056B
:1016C000A8F321E0821A9108A108B10888EEC80E9B
:1016D00083E0D81EE11CF11C81149104A104B10423
:1016E00029F7FF90EF90DF90CF90BF90AF909F9041
:1016F0008F9008952FB7F8946091EF027091F002E7
:101700008091F1029091F2022FBF08958F929F92E3
:10171000AF92BF92CF92DF92EF92FF920F931F93FF
:10172000CF93DF93C82FD62F042FD22EC090B403AF
:101730000E947A0B8090B5039090B603A090B703F7
:10174000B090B803A50194010E94D922B694A79441
:101750009794879410E0E090A503F090A603681595
:1017600079058A059B0508F4F2C081E0CD1080E080
:10177000D23009F48BC0E0F4D13009F469C0E0E262
:10178000CD1429F0EC2FC73008F0E6E0E05D0E0D37
:101790001F1DD801EC93DF91CF911F910F91FF9006
:1017A000EF90DF90CF90BF90AF909F908F90089573
:1017B000D33009F493C0D43011F7C43608F0C3E62F
:1017C00021E060E2CD1451F08091B9038150990B72
:1017D0006AE070E00E94C522605D20E0D701A00FA2
:1017E000B11F6C9380E2211109C08091B90381502F
:1017F000990B6AE070E00E94C522805DA091A5036C
:10180000B091A603A00FB11F11968C9380E2211115
:1018100005C08C2F6AE00E94A522805DA091A503DF
:10182000B091A603A00FB11F12968C9390E22111E4
:1018300005C08C2F6AE00E94A522905D2091A5032F
:101840003091A603020F131FD80113969C93A3CFC8
:10185000C43608F0C3E691E080E2CD1082C0D70123
:10186000A00FB11F8C9391110EC08C2F6AE00E94C3
:10187000A522905D2091A5033091A603020F131FAE
:10188000F801918388CF90E2F5CF80E0EC2FC7304C
:1018900008F0E6E090E2811107C0A091A903B091A1
:1018A000AA03AE0FB11D9C91D701A00FB11F9C934D
:1018B00020E2811108C08091A9039091AA03E80F4A
:1018C000F92FF11D21818091A5039091A603080FA6
:1018D000191FD80111962C935ECF80E0EC2FC733EF
:1018E00008F0E6E390E2811107C0A091AB03B0914C
:1018F000AC03AE0FB11D9C91D701A00FB11F9C93FB
:1019000090E2811108C0A091AB03B091AC03AE0F7F
:10191000B11D11969C91A091A503B091A603A00FB3
:10192000B11F11969C9320E2811108C08091AB03F6
:101930009091AC03E80FF92FF11D22818091A5034E
:101940009091A603080F191FF801228324CFD230EB
:1019500009F49BCF68F4D13009F014CFC43608F0F5
:10196000C3E68C2F6AE00E94A522805D90E077CFCD
:10197000D33009F4B2CFD43009F004CFC43608F420
:1019800023CFC3E621CF1F93CF93DF93C6E9D3E0E4
:101990008D859E85DC01ED91FC910280F381E02D27
:1019A00060E00995982F92959F701AE08F70919F33
:1019B000800D11248F8B88838D859E85DC01ED91B0
:1019C000FC910280F381E02D61E00995982F9295BA
:1019D0009F708F70919F800D1124888F89838D85D2
:1019E0009E85DC01ED91FC910280F381E02D62E0A7
:1019F0000995982F92959F708F70919F800D11245B
:101A0000898F8B838D859E85DC01ED91FC91028011
:101A1000F381E02D63E00995982F92959F708F7068
:101A2000919F800D11248A8F8D838D859E85DC0189
:101A3000ED91FC910280F381E02D64E00995982FEF
:101A400092959F708F70919F800D11248B8F8F8343
:101A50008D859E85DC01ED91FC910280F381E02D66
:101A600065E00995982F92959F708F70919F800DDA
:101A700011248C8F88878D859E85DC01ED91FC91EA
:101A80000280F381E02D66E00995982F92959F7072
:101A90008F708150919F800D11248D8F8E830E94B5
:101AA000160769877A878B879C870E947A0B6EA3BB
:101AB0007FA388A799A7DF91CF911F9108950F93D6
:101AC0001F938091D50384FD18C08091D6030E9496
:101AD000850A3091D50333FB222720F935FB3327C4
:101AE00030F9232731E0892B09F030E0232780915A
:101AF000D40320FB80F98093D4038091D40380FF2A
:101B0000CCC082FDCAC081FDA0C082608093D40396
:101B10000E947A0B6093E1037093E2038093E303E6
:101B20009093E4038091D40380FD27C082FF62C0BC
:101B30008B7F8093D40383FD05C08091DF038F5F8B
:101B40008093DF038091D403877F80648093D403E4
:101B50000E947A0B6093E1037093E2038093E303A6
:101B60009093E4038091D5038E7F8093D50381FF0A
:101B700004C08D7F84608093D5038091D40382FF5D
:101B800039C080FF37C00E947A0B0091E1031091A9
:101B9000E2032091E3033091E403AB01BC01401B5D
:101BA000510B620B730B8091D9039091DA03B0E073
:101BB000A0E0481759076A077B07E0F08091D4033B
:101BC00083FD18C01092DF031092E00388608062EA
:101BD0008093D4038091D50381608D7F8093D5035A
:101BE0000E947A0B6093E1037093E2038093E30316
:101BF0009093E4030E947A0B0091E1031091E203B9
:101C00002091E3033091E403AB01BC01401B510B75
:101C1000620B730B8091DB039091DC03B0E0A0E0DA
:101C2000481759076A077B0768F08091DF0388230C
:101C300049F08093E0031092DF038091D403806128
:101C40008093D4031F910F9108950E947A0B009105
:101C5000E1031091E2032091E3033091E403AB012F
:101C6000BC01401B510B620B730B8091D703909109
:101C7000D803B0E0A0E0481759076A077B0708F4CB
:101C800051CF8091D403846080688093D403809185
:101C9000D50382608093D50345CF8091D4038D7F97
:101CA0008093D4033FCF8091D50386FD0E945F0DC2
:101CB0009091D40394FB882780F994FF09C0209168
:101CC000E003213021F49F7E9093D403089580E0B7
:101CD00008958091D50386FD0E945F0D9091D403F5
:101CE00094FB882780F994FF09C02091E0032230FB
:101CF00021F49F7E9093D403089580E00895FC0121
:101D0000A485B5859C918681982381E009F480E0C3
:101D10000895FC01A085B18586819C9161110AC05E
:101D2000892B8C93A089B1899C9186818095892388
:101D30008C930895809589238C93A089B1898C9187
:101D40009681892BF5CFFC01A285B38587819C9173
:101D5000611110C0892B8C93A289B3899C918781D2
:101D6000809589238C9320E63AEE81E0232B09F4B9
:101D700080E00895809589238C93A289B3898C9102
:101D80009781892B8C93A685B785978120E63AEEBB
:101D90008C91892351F72115310539F321503109EF
:101DA000F7CF20E4629FC001112484688093BC00B7
:101DB00081E69AEE2091BC0027FD02C00197D1F781
:101DC0008091B900887F803511F4611109C080913C
:101DD000B900887F883511F080E008956111FCCF4B
:101DE0008091BB0008956093BB0084E88093BC00A1
:101DF00081E69AEE2091BC0027FD02C00197D1F741
:101E00009091B900987F81E0983209F080E00895C0
:101E1000842F660F640F6093BB0094E89093BC001E
:101E200021E63AEE9091BC0097FD03C021503109A4
:101E3000C9F79091B900987F903411F4811109C0CD
:101E40009091B900987F983119F491E0892708950D
:101E500080E0089584E98093BC0081E69AEE2091A9
:101E6000BC0024FD02C00197D1F78BE490E00197FC
:101E7000F1F7089584EA8093BC0081E69AEE209100
:101E8000BC0027FD02C00197D1F79091B900987F5F
:101E900081E0903109F080E0089584EA8093BC00ED
:101EA00081E69AEE2091BC0027FD02C00197D1F790
:101EB0009091B900987F81E0983009F080E0089512
:101EC0001F93CF93DF93EC01162FE881F9810688E9
:101ED000F789E02D0995882371F0E881F981048C58
:101EE000F58DE02D40E0612FCE01099512E08111C2
:101EF00003C011E001C010E0E881F981028CF38D8C
:101F0000E02DCE01099581E0123009F080E0DF91EB
:101F1000CF911F91089583E00895DF92EF92FF9291
:101F20000F931F93CF93DF93EC01F62ED42E152F32
:101F3000022FE881F9810688F789E02D0995882329
:101F4000F9F0E881F981048CF58DE02D40E06F2DEA
:101F5000CE010995882341F1ED2CF12E12E0E881A4
:101F6000F981002371F0D7016D917D01068CF78D09
:101F7000E02DCE010995811101C010E00150EFCF95
:101F800010E0E881F981028CF38DE02DCE010995F6
:101F900081E0123009F080E0DF91CF911F910F9125
:101FA000FF90EF90DF90089511E0EBCFDF92EF927A
:101FB000FF920F931F93CF93DF93EC01E62EF42E45
:101FC000D22E132FE881F9810688F789E02D099533
:101FD000882349F1E881F981048CF58DE02D40E0FA
:101FE0006E2DCE010995882391F1E881F981068C47
:101FF000F78DE02D6F2DCE010995882351F1ED2C41
:10200000F12E13E0E881F981002371F0D7016D9181
:102010007D01068CF78DE02DCE010995811101C05F
:1020200010E00150EFCF10E0E881F981028CF38DD0
:10203000E02DCE01099581E0133009F080E0DF91B9
:10204000CF911F910F91FF90EF90DF90089511E0D5
:10205000EBCF12E0E9CFEF92FF920F931F93CF9354
:10206000DF93EC01162F7A01022FE881F9810688AF
:10207000F789E02D0995882329F1E881F981048CFD
:10208000F58DE02D41E0612FCE01099511E0882307
:10209000D1F012E001C010E0E881F981002399F04D
:1020A00061E0023008F460E000A0F1A1E02DCE0173
:1020B0000995F70181937F0101508091B90080FD5E
:1020C000EACFEACF10E0E881F981028CF38DE02DB0
:1020D000CE01099581E0123009F080E0DF91CF91C7
:1020E0001F910F91FF90EF900895DF92EF92FF9272
:1020F0000F931F93CF93DF93EC01162FD42E79010A
:10210000E881F9810688F789E02D0995882309F48B
:1021100045C0E881F981048CF58DE02D40E0612F08
:10212000CE010995882309F44DC0E881F981068C18
:10213000F78DE02D6D2DCE010995882309F444C05B
:10214000E881F981008CF18DE02DCE01099588237D
:10215000E9F1E881F981048CF58DE02D41E0612FF2
:10216000CE01099514E08823D1F015E001C010E0FC
:10217000E881F981002399F061E0023008F460E021
:1021800000A0F1A1E02DCE010995F70181937F0117
:1021900001508091B90080FDEACFEACF10E0E881DC
:1021A000F981028CF38DE02DCE01099581E0153087
:1021B00009F080E0DF91CF911F910F91FF90EF9098
:1021C000DF90089511E0EBCF12E0E9CF13E0E7CF05
:1021D000CF93DF931F92CDB7DEB74983DC01ED913A
:1021E000FC910088F189E02D21E0AE014F5F5F4F47
:1021F00009950F90DF91CF9108950F93CF93DF93BF
:102200001F92CDB7DEB72983DC01ED91FC910484E8
:10221000F585E02D01E09E012F5F3F4F09950F905E
:10222000DF91CF910F9108950F931F93CF93DF9379
:10223000EC01162F042FE881F9810280F381E02D53
:1022400009958DA3FE01E10FF11D968D292F209593
:102250002823202B892B282347896E89CE010296BB
:10226000DF91CF911F910F910C94FD100F931F934D
:10227000CF93DF93EC01162F042FE881F9810280C0
:10228000F381E02D09958DA3FE01E10FF11D968DDF
:10229000292F20952823202B892B282347896E89D5
:1022A000CE010296DF91CF911F910F910C94FD10FA
:1022B000CF93DF931F92CDB7DEB71982DC01ED918A
:1022C000FC910684F785E02D21E0AE014F5F5F4F62
:1022D000099589810F90DF91CF9108950F93CF9346
:1022E000DF931F92CDB7DEB71982DC01ED91FC912F
:1022F0000284F385E02D01E09E012F5F3F4F099599
:1023000089810F90DF91CF910F9108950F931F93C3
:10231000CF93DF938C01C62F61E070E080E090E006
:102320000E94480BC00FD12FD11D4F89F80166893B
:10233000C80102960E946E119E8D8923DF91CF9174
:102340001F910F9108950F931F93CF93DF938C01EB
:10235000C62F61E070E080E090E00E94480BC00F63
:10236000D12FD11D4F89F8016689C80102960E94BC
:102370006E119E8D8923DF91CF911F910F9108954A
:10238000CF92DF92EF92FF92CF93DF93EC016A013D
:102390007B0160E08A810E94DC0A61E08A810E9400
:1023A000AE0A60E08B810E94DC0A61E08B810E94B2
:1023B000AE0AA8EEB3E0A70196010E9444219B015A
:1023C000AC0160E074E284EF90E00E94D9222051D9
:1023D000310941095109569547953795279520931D
:1023E000B8008091B8008A3018F48AE08093B80071
:1023F0008091B9008C7F8093B900DF91CF91FF90DD
:10240000EF90DF90CF9008950F931F93CF93DF93BA
:10241000EC018C010E5F1F4F44E650E060E070E07D
:10242000C8010E94C01142E06E89C8010E946E116D
:102430008DA386FF07C0282F2F7B42E06E89C8013D
:102440000E94FD104EE06E89C8010E946E118DA39E
:10245000982F9F7D39F0282F20724EE06E89C80199
:102460000E94FD104FE06E89C8010E946E118DA37D
:10247000982F937811F483FD0CC08477282F28605F
:102480004FE06E89C801DF91CF911F910F910C949D
:10249000FD10DF91CF911F910F9108950F931F931E
:1024A000CF93DF93EC018C010E5F1F4F44E650E0A9
:1024B00060E070E0C8010E94C01140E06E89C80170
:1024C0000E946E118DA387FF07C0282F2F7740E051
:1024D0006E89C8010E94FD1042E06E89C8010E9409
:1024E0006E118DA386FF07C0282F2F7B42E06E89D7
:1024F000C8010E94FD1047E06E89C8010E946E115C
:102500008DA3982F937011F484FD0CC08C7E282F1E
:10251000206147E06E89C801DF91CF911F910F9133
:102520000C94FD10DF91CF911F910F910895BF92F0
:10253000CF92DF92EF92FF920F931F93CF93DF938F
:10254000EC01B62E6B8970E084EF91E00E94C52209
:1025500001E0060F61E08C810E94DC0AD12CC12CC5
:10256000EE24E394F12C10E0B7010C2C01C0660FAF
:102570000A94EAF76B218C810E94AE0AC8010E947E
:10258000180B61E08B810E94AE0AC8010E94180BF3
:1025900060E08B810E94AE0A8FEFC81AD80A88E0EB
:1025A000C816D10409F760E08C81DF91CF911F91AB
:1025B0000F91FF90EF90DF90CF90BF900C94DC0ACA
:1025C0000F931F93CF93DF93EC01162F042F61E03D
:1025D0008A810E94AE0A6FEF610FCE010E949712AE
:1025E000602FCE010E94971260E08A810E94AE0A9D
:1025F000DF91CF911F910F910895AF92BF92CF922B
:10260000DF92FF920F931F93CF93DF93EC01162F6E
:1026100081E08C8B61E08A810E94AE0A612FCE013D
:102620000E9497126B8970E084EF91E00E94C522AE
:1026300001E0060F60E08C810E94DC0A8C810E9420
:10264000850AFF24F394892B09F4F12CCC24C3943C
:10265000D12C10E0AA24A394B12C61E08B810E94BC
:10266000AE0AC8010E94180B60E08B810E94AE0A7E
:10267000C8010E94180B8C810E94850A892B39F0B1
:10268000C5010C2C01C0880F0A94EAF7F82A8FEFD5
:10269000C81AD80A88E0C816D104F9F6FC8A60E0A6
:1026A0008A810E94AE0A8C89DF91CF911F910F9190
:1026B000FF90DF90CF90BF90AF9008950F931F933E
:1026C000CF93DF93EC01162F042FE881F98102806C
:1026D000F381E02D09958C8BFE01E10FF11D9485AE
:1026E000492F40954823402B892B48236581CE01F3
:1026F000DF91CF911F910F910C94E0120F931F93D4
:10270000CF93DF938C01C62F61E070E080E090E012
:102710000E94480BC00FD12FD11D6D81C8010E94AE
:10272000FD129C858923DF91CF911F910F91089510
:10273000CF93DF93EC0161E08A810E94DC0A61E0C3
:102740008B810E94DC0A60E08C810E94DC0A60E0E0
:102750008B810E94AE0A60E08A810E94AE0A61E825
:10276000CE010E94FD128C8B87FF06C0482F4F7749
:1027700061E8CE010E94E01265E8CE010E94FD12E0
:102780008C8B87FF06C0482F4F7765E8CE010E94EB
:10279000E0126FE8CE010E94FD128C8B87FF08C00B
:1027A000482F4F776FE8CE01DF91CF910C94E01264
:1027B000DF91CF910895FC0101900020E9F7319756
:1027C000AF01481B590BBC0189EF92E00C944F09F3
:1027D0004F925F926F927F928F929F92AF92BF9231
:1027E000CF92DF92FF920F931F93CF93DF938C01D1
:1027F0008090BC039090BD03A090BE03B090BF0337
:102800000E947A0B681579058A059B0540F41092A1
:10281000BC031092BD031092BE031092BF0320911F
:10282000BA033091BB032115310509F04AC00E945B
:10283000C30C20919903822F6CE00E94A522911174
:1028400001C09CE09093980381E02C3008F480E074
:1028500080939A03F80101900020E9F79F0121502D
:102860003109201B310BC1E0C20FA091A703B09129
:10287000A80390E0492F50E04217530708F0F8C032
:10288000FD0101900020E9F731975F01AA1ABB0A08
:1028900080E0400F511F682F70E06A157B0508F03B
:1028A000E5C06A0F7B1FFA01D081FB016081D6135E
:1028B00006C0882321F08A3008F0D2C0CF5F8F5F36
:1028C000EACF8090BC039090BD03A090BE03B0906F
:1028D000BF0381149104A104B10409F4A8CF820EAE
:1028E000931EA11CB11C0E947A0B681579058A05FC
:1028F0009B0508F09CCF0E947A0B8090BC039090BF
:10290000BD03A090BE03B090BF03681979098A097E
:102910009B0928EE33E040E050E00E94D922C091AC
:10292000B103D091B203C23009F48BC081E090E0D2
:10293000C83010F490E080E08C0F911D81709927D1
:10294000EEE1FE2EF80E8091AD0329013A01480E0A
:10295000511C611C711CC301B2012CE3822E912C0D
:10296000A12CB12CA50194010E94D9226093960359
:102970008091AE0329013A01480E511C611C711C63
:10298000C301B201A50194010E94D922609397036B
:102990008091AF0359016A01A80EB11CC11CD11C62
:1029A000C601B50128E130E040E050E00E94D922A4
:1029B000609399038091B303820F873008F04DC074
:1029C00080939C038091B00329013A01480E511C69
:1029D000611C711CC301B2012F2D30E02F5F3F4FEE
:1029E000032E000C440B550B0E94D922620F6093FA
:1029F0009B03CA01B9016C0F711D811D911D2DE052
:102A000030E040E050E00E94D922620F60939D03C5
:102A1000CA01B9016D0F711D811D911D24E630E0C1
:102A200040E050E00E94D92260939E030E94160766
:102A300060939F037093A0038093A1039093A203DC
:102A4000F8CE6D2F63707727CB017CE1F72E892BB1
:102A500009F079CF6DE1F62E76CF10929C03B2CFBC
:102A60008C3010F4CE5F2BCFCD5F29CF9F5F02CF8C
:102A70008091A5039091A6030E94C3238C2F90E020
:102A80000E9427239093A6038093A503C0E0D0E083
:102A90008D2F90E0F80101900020E9F73197E01BBD
:102AA000F10B8E179F0708F098C0800F911FFC0153
:102AB0008081E091A703F091A8039081891309C058
:102AC00027E04C2F60E080919C030E94860BCF5F33
:102AD0000CC0918189130BC080919A0328E04C2F80
:102AE00062E0880F0E94860BCE5FDF5FD1CF9281BC
:102AF000891304C080919A038E5FF0CF938189136C
:102B000006C024E04C2F61E080919B03EBCF9481C1
:102B1000891306C023E04C2F61E080919803E2CF37
:102B20009581891306C023E04C2F61E080919903C1
:102B3000D9CF9681891306C022E04C2F61E08091A5
:102B40009703D0CF9781891306C025E04C2F61E011
:102B500080919D03C7CF9085891306C021E04C2F3B
:102B600061E080919603BECF9185891306C026E06F
:102B70004C2F61E080919E03B5CF928589130DC0E3
:102B800090919D03892F880F890F25E04C2F63E0DA
:102B90008E5E0E94860BCD5FA8CF9385891309C0F6
:102BA00080919C03982F990F27E04C2F63E0890FA9
:102BB000F0CF9485891309C026E04C2F64E0809102
:102BC0009E030E94860BCC5F90CFE091A503F0910D
:102BD000A603EC0FF11D80837ACFE091A503F0915D
:102BE000A603EC0FF11D10828091A5039091A6031E
:102BF000DF91CF911F910F91FF90DF90CF90BF9009
:102C0000AF909F908F907F906F905F904F900895BE
:102C1000CF93DF93EC0188819981009711F00E9496
:102C2000C323198218821D821C821B821A82DF91A3
:102C3000CF910895FC0180819181009711F00C944F
:102C4000C32308952F923F924F925F926F927F928B
:102C50008F929F92AF92BF92CF92DF92EF92FF92AC
:102C60000F931F93CF93DF93CDB7DEB762970FB665
:102C7000F894DEBF0FBECDBF5C016B017A016DB66B
:102C80007EB6E091C9038E2F877009F089C1D50106
:102C90000D900020E9F71197AA19BB092091C803EC
:102CA00030E02A9F80012B9F100D3A9F100D1124B8
:102CB0000138110560F080E890E0B9010E94C5225A
:102CC000629F8001639F100D729F100D11244DEFC4
:102CD000C416D10429F13CF48CEFC816D104E9F0F4
:102CE000C092C10308C09EEFC916D10411F1FFEFD5
:102CF000CF16D104A9F74E2F4695469546955BEF22
:102D0000E516F10409F40AC1BCF49AEFE916F104DE
:102D100009F4F2C0E092C00318C01092C103EBCFD7
:102D200080E890E0801B910B969587958093C10376
:102D3000E2CF80E8801BFACFFDEFEF16F10409F433
:102D4000DFC04FEFE416F10429F74091C10350E0D2
:102D5000CA01800F911F8138910570F080E890E0E2
:102D6000841B950BB9010E94C522629F8001639F5D
:102D7000100D729F100D11248DB79EB79A83898311
:102D8000EDB7FEB7E01BF10B0FB6F894FEBF0FBE18
:102D9000EDBF2DB73EB72F5F3F4F6901F12C8F2D4F
:102DA0000F2C000C990B2091C9032695269526958A
:102DB000422F50E0841795070CF0E6C03091C00315
:102DC000830F911D37FD9A950196841B950B0897EB
:102DD00008F0D8C0E090C8036E2D70E0C8010E94D2
:102DE000B1223091CE033A8B8091D103482F50E02D
:102DF0005C834B838091CF03482F50E05E834D83EB
:102E00008091D203482F50E058874F838091D003A0
:102E1000482F50E05A8749878091D303482F50E0CC
:102E20005C874B878091CA03482F50E05E874D87AF
:102E3000E29EC0011124998B888B97013203100107
:102E4000112444E0240E311C5091CC035F87409044
:102E5000C6035090C703912C892D90E086179707E1
:102E600008F064C08A0D9B1DFC012081822F90E038
:102E70008A88821620F42B813C81821B930B4D8122
:102E80005E814817590720F42F813885821B930BE8
:102E900049855A854817590720F42B853C85821BA4
:102EA000930B4D855E85841B950B28893989829FFC
:102EB000A001839F500D929F500D1124420D531D70
:102EC0009E9CD001112430E020E0440D551D2E15AC
:102ED00058F5FA01E20FF31FC9018A0F9B1F8F8477
:102EE0008820F1F0E4918C0D9D1D8E2E8094FC01C4
:102EF00080822F5F3F4FEBCF41504093C00325CFDF
:102F000088E090E0841B910997FD0196959587953F
:102F1000E295EF708E0F8093C00317CF87E0FBCF51
:102F200084908C0D9D1DE3CF939496CF82E20E94F6
:102F300021088091C0038F5F9091C9039695969563
:102F40009695891B8F0D0E9421088091C0038F5F89
:102F50009091C903969596959695891B8F0D0E9421
:102F6000210881E20E9421088091C1030E9421086A
:102F70008091C1038150800F0E942108602FC601FB
:102F80000E94D107F3940BCF8091C103080F0093E7
:102F9000C10329813A810FB6F8943EBF0FBE2DBF01
:102FA0000FB6F8947EBE0FBE6DBE62960FB6F89453
:102FB000DEBF0FBECDBFDF91CF911F910F91FF906C
:102FC000EF90DF90CF90BF90AF909F908F907F90C9
:102FD0006F905F904F903F902F9008950F931F93A5
:102FE000CF93DF93EB018A010E9473082091CD03F8
:102FF000222341F0A801BE01DF91CF911F910F91D3
:103000000C942216DF91CF911F910F910895CF92CA
:10301000DF92EF92FF920F931F93CF93DF93CDB781
:10302000DEB7FC017B016A010DB71EB7DC010D9014
:103030000020E9F7CD018E1B9F0B2DB73EB7281B53
:10304000390B0FB6F8943EBF0FBE2DBF4DB75EB71C
:103050004F5F5F4F90E0292F30E0DF010D9000209F
:10306000E9F71197AE1BBF0BA217B30758F0BA01CF
:10307000620F731F2E0F3F1FD9018C91DB018C93C0
:103080009F5FE9CFCA010E9473082091CD032223DC
:1030900021F0A601B7010E9422160FB6F8941EBFB8
:1030A0000FBE0DBFDF91CF911F910F91FF90EF9059
:1030B000DF90CF9008952F923F924F925F926F9240
:1030C0007F928F929F92AF92BF92CF92DF92EF92B8
:1030D000FF920F931F93CF93DF93CDB7DEB76B01B2
:1030E0007C018DB69EB6412C512C3201439411E0E7
:1030F000C701B601A30192010E94D922232B242BE0
:10310000252B51F0AAE0B0E0A30192010E944421D6
:103110002B013C011F5FECCFC114D104E104F10489
:1031200009F41F5F8DB79EB7811B910917FD939519
:103130000FB6F8949EBF0FBE8DBFEDB7FEB73196A8
:103140005F0177247A94710EE70DF11D77FCFA95F3
:1031500010828AE0282E312C412C512C7720A1F0AE
:103160008501070D111D77FC1A9501501109C70142
:10317000B601A20191010E94D922605DF80160832D
:1031800069017A017A94EACF4FEF50E06FEF70E077
:10319000C5010E94EE170FB6F8949EBE0FBE8DBEFD
:1031A000DF91CF911F910F91FF90EF90DF90CF9023
:1031B000BF90AF909F908F907F906F905F904F9057
:1031C0003F902F9008952F923F924F925F926F926F
:1031D0007F928F929F92AF92BF92CF92DF92EF92A7
:1031E000FF920F931F93CF93DF93CDB7DEB76B01A1
:1031F0007C01ADB6BEB6412C512C3201439462E045
:10320000962EC701B601A30192010E94FB22232B37
:10321000242B252B51F0AAE0B0E0A30192010E94DB
:1032200044212B013C019394ECCF8DB79EB78919B3
:10323000910997FC93950FB6F8949EBF0FBE8DBF72
:103240000DB71EB70F5F1F4F8FEF890DF801E80F05
:10325000F11D87FDFA9510824EEF742E790C1C1427
:103260001D041E041F044CF4F801E70DF11D77FC4A
:10327000FA9510823DEF732E790CA7019601F7FEA7
:1032800007C022273327A9012C193D094E095F09E0
:10329000B901CA012AE0222E312C412C512C772071
:1032A00081F04801870C911C77FC9A94A20191014E
:1032B0000E94D922605DF4016083B901CA017A9449
:1032C000EECFF7FC28C02AE030E040E050E00E945A
:1032D000D922605DF80160834FEF50E06FEF70E03E
:1032E000C8010E94EE170FB6F894BEBE0FBEADBE69
:1032F000DF91CF911F910F91FF90EF90DF90CF90D2
:10330000BF90AF909F908F907F906F905F904F9005
:103310003F902F9008958DE2F8018083DDCF8F924A
:103320009F92AF92BF92CF92DF92EF92FF920F9354
:103330001F93CF93DF93CDB7DEB75B014A01CDB6C4
:10334000DEB6FC010481158198012F5F3F4F4DB718
:103350005EB7421B530B0FB6F8945EBF0FBE4DBF56
:10336000EDB7FEB731967F01232B21F00115110532
:10337000F1F41082C7010E9473082091CD0322232B
:1033800021F0A401B5010E9422160FB6F894DEBE0A
:103390000FBECDBEDF91CF911F910F91FF90EF90A7
:1033A000DF90CF90BF90AF909F908F900895FC01D9
:1033B00060817181A801C7010E941925F701E00F02
:1033C000F11FD7CF0F931F93CF93DF93EC01888129
:1033D0009981009759F02A813B812617370730F0F1
:1033E00081E0DF91CF911F910F9108958B016F5F65
:1033F0007F4F0E944C24009759F0998388831B8348
:103400000A832C813D81232B59F7FC011082E8CFE0
:1034100080E0E7CFEF92FF920F931F93CF93DF935C
:103420006115710541F480E0DF91CF911F910F91FB
:10343000FF90EF90089541155105B1F07B01EC012B
:103440000C811D81040F151FB8010E94E219882309
:1034500051F3288139818C819D81B701820F931F9F
:103460000E9412251D830C8381E0DECFCF93DF9372
:10347000EC01FB0144815581608171810E940A1A2F
:10348000811103C0CE010E940816CE01DF91CF91B9
:103490000895EF92FF920F931F93CF93DF93EC0168
:1034A0007B018A01BA010E94E21981110BC0CE0191
:1034B0000E940816CE01DF91CF911F910F91FF90CE
:1034C000EF9008951D830C83B701888199810E9434
:1034D0001225F0CFEF92FF920F931F93CF93DF93BC
:1034E000CDB7DEB762970FB6F894DEBF0FBECDBF83
:1034F0008C01CB01F8011182108213821282158295
:1035000014824AE09E012F5F3F4F7901B9010E946A
:103510006B20F70101900020E9F73197AF014E19B8
:103520005F09B701C8010E94491A62960FB6F89464
:10353000DEBF0FBECDBFDF91CF911F910F91FF90E6
:10354000EF900895CF93DF93EC01FB018617970767
:1035500049F0608171816115710541F044815581A7
:103560000E94491ACE01DF91CF9108950E9408165A
:10357000F9CFFC011182108213821282158214820B
:10358000FB0101900020E9F73197AF01461B570B73
:103590000C94491A2F923F924F925F926F927F92B2
:1035A0008F929F92AF92BF92CF92DF92EF92FF9253
:1035B0000F931F93CF93DF93CDB7DEB76A970FB604
:1035C000F894DEBF0FBECDBF7C0110E000E0C80163
:1035D0000E942E21882319F00F5F1F4FF8CF015052
:1035E0001109B801012E000C880B990B0E94A22032
:1035F00020E030E040EF52E40E94AC210E9495218F
:103600000E941E222B01C701B2010E94C5226C013B
:1036100082EC90E00E94DF0881E08093C30367E6BC
:1036200072E0CE0143960E94B91A88E78C9D100182
:103630008D9D300C112488248394912CF12CE12C45
:103640001092C103E092C00350E040E067E672E0F0
:10365000CE0143960E94491A54018F89988D449750
:10366000C0F4BA8EA98EC1018A0D9B1D0E942E2125
:103670009FEFA91AB90A882361F089831A8241E071
:1036800050E0BE016F5F7F4FCE0143960E940A1A41
:10369000E4CF1A8219821C821B821E821D82BE0107
:1036A0006D5E7F4FCE0101960E94A21AA70170E0C5
:1036B00060E0CE0101960E948F19CE0101960E9412
:1036C0001A16898D9A8D820D931D0E942E218823B2
:1036D00059F08FEFE81AF80A94E1890E911C86E000
:1036E000E816F10409F0ACCFB201CE010D960E94AC
:1036F0006A1AB6016F5F7F4FCE0107960E946A1A61
:103700006DEA71E0CE0101960E94B91ABE01695FAF
:103710007F4FCE0101960E94361A7C0141E050E0B5
:1037200063EB71E00E940A1A811103C0C7010E9475
:103730000816BE01635F7F4FC7010E94361ABC01A5
:10374000CE0143960E94A21ACE0101960E941A163B
:10375000CE0107960E941A16CE010D960E941A16E7
:103760001A8219821C821B821E821D82BE016D5E1E
:103770007F4FCE0101960E94A21A47E050E06CEF05
:1037800070E0CE0101960E948F19CE0101960E9431
:103790001A16B801CE0107960E946A1A65EB71E00D
:1037A000CE0101960E94B91ABE01695F7F4FCE011A
:1037B00001960E94361A8C0141E050E06DEB71E0F9
:1037C0000E940A1A811103C0C8010E940816B8019C
:1037D000CE0143960E94A21ACE0101960E941A16AB
:1037E000CE0107960E941A161A8219821C821B8229
:1037F0001E821D82BE016D5E7F4FCE0101960E942A
:10380000A21A47E050E06EEF70E0CE0101960E94F0
:103810008F19CE0101960E941A16CE0143960E947E
:103820001A166A960FB6F894DEBF0FBECDBFDF91B1
:10383000CF911F910F91FF90EF90DF90CF90BF90AD
:10384000AF909F908F907F906F905F904F903F9040
:103850002F9008951F920F920FB60F9211242F935D
:103860003F934F935F936F937F938F939F93AF9308
:10387000BF93EF93FF9389EF92E00E94CD09FF91F0
:10388000EF91BF91AF919F918F917F916F915F91D8
:103890004F913F912F910F900FBE0F901F90189551
:1038A0001F920F920FB60F9211242F938F939F9315
:1038B000EF93FF93E0910903F0910A038081E09177
:1038C0000F03F091100382FD1BC0908180911203C1
:1038D0008F5F8F7320911303821741F0E0911203E1
:1038E000F0E0E750FD4F958F80931203FF91EF9129
:1038F0009F918F912F910F900FBE0F901F90189551
:103900008081F4CF1F920F920FB60F9211242F9344
:103910003F938F939F93AF93BF938091EF029091CA
:10392000F002A091F102B091F2023091EE0223E098
:10393000230F2D3758F50196A11DB11D2093EE02DE
:103940008093EF029093F002A093F102B093F20201
:103950008091F3029091F402A091F502B091F602E9
:103960000196A11DB11D8093F3029093F402A093E0
:10397000F502B093F602BF91AF919F918F913F9165
:103980002F910F900FBE0F901F90189526E8230FD0
:103990000296A11DB11DD2CFCF93DF93EC01188207
:1039A000198281E08A831B821C828D831E828F8311
:1039B000188619861A861B861C8681E090E00E9474
:1039C0002723988B8F878CE591E09A8B898B8AE6E9
:1039D00091E09C8B8B8B83E791E09E8B8D8B1E8E71
:1039E00088EE93E0A0E0B0E08F8F98A3A9A3BAA3DC
:1039F00085E18BA31DA21CA21EA21FA218A619A6B8
:103A000085E190E00E942723EC0188E191E0998311
:103A1000888387E0E6E0F1E0DE01159601900D92E3
:103A20008A95E1F787E0EDE0F1E0DE011C96019078
:103A30000D928A95E1F78AE08B8B83E08A8384E09C
:103A40008B8385E08C83D093A403C093A303DF9181
:103A5000CF9108950F93CF93DF93E9EFF2E01382B4
:103A6000128288EE93E0A0E0B0E084839583A68381
:103A7000B78382E291E09183808385EC90E0958723
:103A8000848784EC90E09787868780EC90E0918B28
:103A9000808B81EC90E0938B828B82EC90E0958B15
:103AA000848B86EC90E0978B868B118E128E138E12
:103AB000148EE4EDF3E013861486158616861786B9
:103AC000108A82E082838CE390E09483838384EF86
:103AD00091E09683858380E991E0928781878CE2EB
:103AE00091E090878783E5EDF3E08081877C8F7B91
:103AF000808362E082E00E94DC0AC0ECD3E081E0D7
:103B00008B83188619861A861B861C861D868CE375
:103B10008A8384E190E00E942723FC0184E391E002
:103B20009183808382E1828383E18383FD83EC83BD
:103B300005E024E043E061E086E993E00E94CC1CCC
:103B4000DF91CF910F910895CF93DF93CDB7DEB77B
:103B5000A1970FB6F894DEBF0FBECDBF789484B5A1
:103B6000826084BD84B5816084BD85B5826085BD79
:103B700085B5816085BD80916E00816080936E0007
:103B800010928100809181008260809381008091F9
:103B900081008160809381008091800081608093AA
:103BA00080008091B10084608093B1008091B0006A
:103BB00081608093B00080917A00846080937A0065
:103BC00080917A00826080937A0080917A0081608F
:103BD00080937A0080917A00806880937A001092B6
:103BE000C1008091C4039091C503DC01ED91FC916B
:103BF0000190F081E02D44E650E060E070E009952E
:103C00008EEA0E94210885ED0E94210880E80E942A
:103C1000210888EA0E9421088FE30E94210883ED91
:103C20000E94210880E00E94210880E40E9421086F
:103C30008DE80E94210884E10E94210880E20E9410
:103C4000210880E00E94210881EA0E94210888EC76
:103C50000E9421088AED0E94210882E10E94210829
:103C600081E80E9421088FEC0E94210889ED0E94C2
:103C7000210881EF0E9421088BED0E94210880E439
:103C80000E94210884EA0E94210886EA0E942108F5
:103C90008FEA0E9421080E94340882EC90E00E9482
:103CA000DF0881E08093C30341E050E06DEF70E0F6
:103CB0008FEB91E00E94071843E050E06DEF70E059
:103CC0008AEC91E00E9407186AE090E080E00E9490
:103CD000362160E08EEF93E00E94362144E050E010
:103CE0006DEF70E087EE91E00E940718E091090304
:103CF000F0910A0382E08083E0910503F0910603CE
:103D000086E08083E0910703F091080392E89083B6
:103D100010921103E0910D03F0910E038083E09166
:103D20000B03F0910C03808180618083E0910B0391
:103D3000F0910C03808188608083E0910B03F09107
:103D40000C03808180688083E0910B03F0910C0369
:103D500080818F7D808345E050E06DEF70E08EEFD5
:103D600091E00E94071810E000E0C8010E942E2197
:103D7000882389F00F5F1F4FC8010E942E21682FF2
:103D800089EF92E00E94EF0965E070E080E090E04A
:103D90000E94480BEACF46E050E06DEF70E08FE103
:103DA00092E00E94071868EE73E080E090E00E94C5
:103DB000480B0E9434089AE0C92ED12CE12CF12C3A
:103DC00028EE422E23E0522E612C712C80E0282E0A
:103DD00080E0382E89EF92E00E94AD09892B09F42A
:103DE00087C089EF92E00E949F090A9709F00AC1F3
:103DF00088E492E00E94DB138090F7029090F80232
:103E0000092C000CAA08BB08B7FE50C06DE289EF70
:103E100092E00E94EF0922273327A90128193909C6
:103E20004A095B0919A28E010F5D1F4FCA01B90132
:103E3000A70196010E94D922605DF80162938F016B
:103E4000211531054105510589F70115110519F0B5
:103E5000C8010E94DB1385E692E00E94DB1388E62E
:103E600092E00E94DB138091F7029091F80260E0EB
:103E700001960E9436211092F8021092F7020091EA
:103E8000F7021091F802C8010E942E21882321F127
:103E9000C80101969093F8028093F7020E942E21A8
:103EA000682F89EF92E00E94EF09E9CFA501940104
:103EB00019A28E010F5D1F4FCA01B901A70196011A
:103EC0000E94D922605DD8016E938D0121153105C4
:103ED0004105510589F7B9CF85E692E00E94DB13D1
:103EE0001092F8021092F70289EF92E00E948B097B
:103EF0000E945F0D0E94530E882309F4B0C00E94F7
:103F00007A0B4B015C010E94530E8111A6C00E94E6
:103F10007A0B681979098A099B0960317742810512
:103F2000910508F09AC089EE94E00E94DF080E9493
:103F30005F0D0E947A0BA30192010E94D922672B88
:103F4000682B692B01F787E692E00E94E81361E095
:103F500070E080E090E00E94480BF0E1F093C10334
:103F600024E02093C003809199038A3028F460E014
:103F700070E0CB010E94E3186091990370E090E03B
:103F800080E00E945B184FEF50E06FEF70E086EE2C
:103F900092E00E940718809197038A3028F460E02D
:103FA00070E0CB010E94E3186091970370E090E00D
:103FB00080E00E945B184FEF50E06FEF70E086EEFC
:103FC00092E00E940718809196038A3028F460E0FE
:103FD00070E0CB010E94E3186091960370E090E0DE
:103FE00080E00E945B1882EC90E00E94DF0888EE7F
:103FF00092E00E94E81347E050E06DEF70E00E940D
:10400000EE1781CF0091F7021091F8020F5F1F4F5A
:104010001093F8020093F7020D3FB3E01B07A4F0E2
:1040200089EF92E00E949F090A9729F089EF92E0B8
:104030000E948B09F5CF8DE892E00E94DB1385E6A4
:1040400092E00E94DB1354CF89EF92E00E948B092B
:10405000682FC8010E9436214BCF0E9434080E946D
:10406000690E882361F10E947A0B4B015C0190E09C
:1040700080E00E94CA1A10E000E00E94690E8111DF
:104080001CC00E947A0B681979098A099B0960365D
:104090007A4E8F4F9F4F88F40E945F0D0E94530EFF
:1040A000882339F00E9434080F5F1F4FC8010E9417
:1040B000CA1A0E94690E882301F30E943408211451
:1040C000310409F487CE0E94B909882309F47ECE11
:1040D0000E9400007BCEBB274A3031F4992322F4A2
:1040E000BDE2909581959F4F0C947720BB27FB01F3
:1040F0005527AA27880F991FAA1FA41710F0A41BE1
:1041000083955051B9F7A05DAA3308F0A95DA1933A
:10411000009779F7B111B1931192CB010C949020D3
:10412000DC01FC01672F71917723E1F7329704C01E
:104130007C916D9370836291AE17BF07C8F30895A9
:10414000E89409C097FB3EF4909580957095619531
:104150007F4F8F4F9F4F9923A9F0F92F96E9BB27E7
:104160009395F695879577956795B795F111F8CF63
:10417000FAF4BB0F11F460FF1BC06F5F7F4F8F4FCE
:104180009F4F16C0882311F096E911C0772321F0C4
:104190009EE8872F762F05C0662371F096E8862F5C
:1041A00070E060E02AF09A95660F771F881FDAF7B3
:1041B000880F9695879597F9089597F99F6780E8F6
:1041C00070E060E008959FEF80EC089500240A9469
:1041D0001616170618060906089500240A941216E2
:1041E0001306140605060895092E0394000C11F415
:1041F000882352F0BB0F40F4BF2B11F460FF04C0C2
:104200006F5F7F4F8F4F9F4F089557FD9058440F1A
:10421000551F59F05F3F71F04795880F97FB991F25
:1042200061F09F3F79F087950895121613061406E2
:10423000551FF2CF4695F1DF08C01616170618066F
:10424000991FF1CF86957105610508940895E8944A
:10425000BB2766277727CB0197F90895F999FECFF9
:1042600092BD81BDF89A992780B50895262FF999B6
:10427000FECF1FBA92BD81BD20BD0FB6F894FA9A49
:10428000F99A0FBE019608950E948621A59F900D70
:10429000B49F900DA49F800D911D112408952F921D
:1042A0003F924F925F926F927F928F929F92AF92C6
:1042B000BF92CF92DF92EF92FF920F931F93CF9313
:1042C000DF93CDB7DEB7CA1BDB0B0FB6F894DEBFAA
:1042D0000FBECDBF09942A88398848885F846E84D0
:1042E0007D848C849B84AA84B984C884DF80EE801A
:1042F000FD800C811B81AA81B981CE0FD11D0FB623
:10430000F894DEBF0FBECDBFED010895A29FB001AE
:10431000B39FC001A39F700D811D1124911DB29FF9
:10432000700D811D1124911D08950E947D2290F031
:104330009F3748F4911116F40C94282160E070E046
:1043400080E89FE3089526F01B16611D711D811DF5
:104350000C9454220C946F220E94C0210C94F420DF
:104360000E94ED2058F00E94E62040F029F45F3FC3
:1043700029F00C94DD2051110C9428210C94E32099
:104380000E94052168F39923B1F3552391F3951BFE
:10439000550BBB27AA2762177307840738F09F5F66
:1043A0005F4F220F331F441FAA1FA9F335D00E2ED3
:1043B0003AF0E0E832D091505040E695001CCAF740
:1043C0002BD0FE2F29D0660F771F881FBB1F261703
:1043D00037074807AB07B0E809F0BB0B802DBF01DA
:1043E000FF2793585F4F3AF09E3F510578F00C94A9
:1043F000DD200C9428215F3FE4F3983ED4F38695AA
:1044000077956795B795F7959F5FC9F7880F911DC9
:104410009695879597F90895E1E0660F771F881FB5
:10442000BB1F621773078407BA0720F0621B730B68
:10443000840BBA0BEE1F88F7E09508950E942522A1
:104440006894B1110C94282108950E940D2188F0E0
:104450009F5798F0B92F9927B751B0F0E1F0660F48
:10446000771F881F991F1AF0BA95C9F714C0B13089
:1044700091F00E942721B1E008950C942721672F25
:10448000782F8827B85F39F0B93FCCF386957795B8
:104490006795B395D9F73EF49095809570956195A1
:1044A0007F4F8F4F9F4F0895882371F4772321F01A
:1044B0009850872B762F07C0662311F499270DC0DB
:1044C0009051862B70E060E02AF09A95660F771F76
:1044D000881FDAF7880F9695879597F908959F3F7B
:1044E00031F0915020F4879577956795B795880FAF
:1044F000911D9695879597F908950E940D21A0F03A
:10450000BEE7B91788F4BB279F3860F41616B11DB3
:10451000672F782F8827985FF7CF869577956795CF
:10452000B11D93959639C8F30895DB018F939F933E
:104530000E944421BF91AF91A29F800D911DA39F26
:10454000900DB29F900D11240895991B79E004C03D
:10455000991F961708F0961B881F7A95C9F78095C2
:104560000895AA1BBB1B51E107C0AA1FBB1FA617BA
:10457000B70710F0A61BB70B881F991F5A95A9F70C
:1045800080959095BC01CD01089597FB072E16F4F8
:10459000009407D077FD09D00E94B12207FC05D016
:1045A0003EF4909581959F4F0895709561957F4F4A
:1045B0000895A1E21A2EAA1BBB1BFD010DC0AA1F64
:1045C000BB1FEE1FFF1FA217B307E407F50720F07C
:1045D000A21BB30BE40BF50B661F771F881F991FF7
:1045E0001A9469F760957095809590959B01AC0140
:1045F000BD01CF010895052E97FB1EF400940E9483
:10460000122357FD07D00E94D92207FC03D04EF495
:104610000C94122350954095309521953F4F4F4F64
:104620005F4F089590958095709561957F4F8F4F5E
:104630009F4F08950E948621B7FF0895821B930B18
:104640000895EE0FFF1F0590F491E02D09940F934C
:104650001F93CF93DF938230910510F482E090E0B6
:10466000E091E703F091E80330E020E0B0E0A0E063
:10467000309799F42115310509F44AC0281B390BEC
:1046800024303105D8F58A819B816115710589F146
:10469000FB0193838283FE0111C04081518102811D
:1046A000138148175907E0F04817590799F41097F4
:1046B00061F012960C93129713961C933296CF01C9
:1046C000DF91CF911F910F9108950093E70310930D
:1046D000E803F4CF2115310551F04217530738F0A4
:1046E000A901DB019A01BD01DF01F801C1CFEF0192
:1046F000F9CF9093E8038093E703CDCFFE01E20F5B
:10470000F31F819391932250310939832883D7CFA6
:104710002091E5033091E603232B41F4209102011F
:10472000309103013093E6032093E50320910001CB
:10473000309101012115310541F42DB73EB740916B
:10474000040150910501241B350BE091E503F09124
:10475000E603E217F307A0F42E1B3F0B28173907D7
:1047600078F0AC014E5F5F4F2417350748F04E0FCD
:104770005F1F5093E6034093E503819391939FCF8E
:10478000F0E0E0E09CCFCF93DF930097E9F0FC01ED
:10479000329713821282A091E703B091E803ED01F2
:1047A00030E020E01097A1F420813181820F931F27
:1047B0002091E5033091E6032817390709F061C01D
:1047C000F093E603E093E503DF91CF910895EA01CA
:1047D000CE17DF07E8F54A815B819E01411551053F
:1047E000B1F7E901FB83EA8349915991C40FD51FC1
:1047F000EC17FD0761F4808191810296840F951F6B
:10480000E90199838883828193819B838A83F0E085
:10481000E0E012968D919C9113970097B9F52D9138
:104820003C911197CD010296820F931F2091E503D1
:104830003091E6032817390739F6309751F5109271
:10484000E8031092E703B093E603A093E503BCCF1F
:10485000D383C28340815181840F951FC817D90724
:1048600061F44E5F5F4F88819981480F591F5183D2
:1048700040838A819B81938382832115310509F0CE
:10488000B0CFF093E803E093E7039ECFFD01DC0196
:10489000C0CF13821282D7CFB0E0A0E0E2E5F4E20D
:1048A0000C9451218C01009751F4CB010E942723D5
:1048B0008C01C801CDB7DEB7E0E10C946D21FC019D
:1048C000E60FF71F9C0122503109E217F30708F4A5
:1048D0009DC0D901CD91DC911197C617D70798F0EB
:1048E000C530D10530F3CE0104978617970708F33A
:1048F000C61BD70B2297C193D1936D937C93CF01A5
:104900000E94C323D6CF5B01AC1ABD0A4C018C0EAA
:104910009D1EA091E703B091E803512C412CF12C8E
:10492000E12C109731F58091E5039091E60388150D
:10493000990509F05CC04616570608F058C08091EA
:10494000000190910101009741F48DB79EB740910D
:10495000040150910501841B950BE817F90708F035
:1049600055C0F093E603E093E503F901718360839A
:10497000A0CF8D919C91119712966C9012971396DF
:104980007C901397A815B90559F56C0142E0C40E47
:10499000D11CCA14DB0420F1AC014A195B09DA010D
:1049A0001296159780F06282738251834083D901F9
:1049B0006D937C93E114F10471F0D7011396FC938D
:1049C000EE93129776CF22968C0F9D1FF90191835B
:1049D0008083F301EFCFF093E803E093E70369CF1F
:1049E0004816590608F42C017D01D3019ACFCB015A
:1049F0000E9427237C01009749F0AE01B8010E9474
:104A00000925C8010E94C323870153CF10E000E0AD
:104A100050CFFB01DC0102C001900D92415050408B
:104A2000D8F70895FB01DC0101900D920020E1F719
:104A30000895FB01DC014150504048F001900D9277
:104A40000020C9F701C01D9241505040E0F7089581
:044A5000F894FFCF08
:104A54000000E903800081838587898D8B7F7F3FF8
:104A64003F1FFF070000000098137E135E13000031
:104A74000000EF094F097C093C0AAD098B099F0925
:104A840000000000C0116E11FD105811E8107510DF
:104A9400D60F2B108D0F8B0F600F4D0F3A0F2A0F6F
:104AA400080FF30ED10EA30E890E7F0E77614164B9
:104AB4006848696D73794D445900616D706D414D5D
:104AC400504D0053756E4D6F6E5475655765645443
:104AD40068754672695361744A616E4665624D61D8
:104AE400724170724D61794A756E4A756C41756791
:104AF4005365704F63744E6F7644656300706167ED
:104B04006520002F00696E206D656D200062006CC9
:104B14006F6164696E672E2E2E00D097D0B0D0BF1F
:104B2400D183D181D0BA20D0BFD0B0D0BCD18FD165
:104B340082D0B82E2E2E00D097D0B0D0BFD183D142
:104B440081D0BA2053657269616C2E2E2E00D09FDD
:104B5400D180D0BED0B2D0B5D180D0BAD0B020D020
:104B6400BFD0B0D0BCD18FD182D0B82E2E2E00D0E1
:104B740097D0B0D0B2D0B5D180D188D0B5D0BDD087
:104B8400B8D0B520D0B7D0B0D0B3D180D183D0B70E
:104B9400D0BAD0B82E2E2E000AD097D0B0D0BFD025
:104BA400B8D181D0B0D0BDD0BE20D0B1D0B0D0B9B2
:104BB400D1823A20000D0A000AD09AD0BED0BDD1CD
:104BC40082D180D0BED0BBD18CD0BDD18BD0B92006
:104BD400D0B2D18BD0B2D0BED0B43A20005B6572D3
:104BE400726F725D09D09FD0B5D180D0B5D0BFD0DF
:104BF400BED0BBD0BDD0B5D0BDD0B8D0B520D0BF0D
:104C0400D0B0D0BCD18FD182D0B820D0BCD0B0D05D
:104C1400BAD181D182D0B8D0BCD183D0BC202D20D0
:104C24003130323020D181D0B8D0BCD0B2D0BED057
:0E4C3400BBD0BED0B2003A00642D6D2D5900E9
:00000001FF
